AFLY01t6 07260
HFDTE010115
HFFXA010
HFPLTPILOT:brad porter     
HFGTYGLIDERTYPE:not-set         
HFGIDGLIDERID:not-set         
HFDTM100GPSDATUM:WGS84
HFRFWFIRMWAREVERSION: 1.3.07  Eng
HFRHWHARDWAREVERSION:1.00
HFFTYFRTYPE:Brauniger,IQ-Basic GPS
HFGPS:FASTRAX,IT430,48
HFPRSPRESSALTSENSOR:INTERSEMA,MS5401BM,12000
HFTZNUTCOFFSET: 11
I033638FXA3940SIU4143TAS
C311214225459010115004202
C3321302S14756048ETakeoff
C3321648S14755920E00000000005000000000360000StartArea,FORBE           
C3333227S14840288E00000000003000000000360000TurnArea,CANOWI          
C3306693S14852896E00000000005000000000360000TurnArea,MOLONG          
C3311123S14840787E00000000000400000000360000FinishArea,MANILD          
C3324806S14817326ELanding
F011631040711131517262830
B0116313321332S14756048EA002250022800409000
F011701040711131517262830
B0117013321325S14756061EA002250022700709000
F011731040711131517262830
B0117313321325S14756061EA002250022700509000
F011801040711131517262830
B0118013321325S14756061EA002250022700409000
F011831040711131517262830
B0118313321325S14756061EA002260022700409000
F011901040711131517262830
B0119013321325S14756061EA002260022700409000
F011931040711131517262830
B0119313321325S14756061EA002260022700509000
F012001040711131517262830
B0120013321325S14756061EA002260022700309000
F012031040711131517262830
B0120313321325S14756061EA002260022700309000
E012048STA
E012048ATS1013.4
LFLYA100227
B0120483321302S14756048EA002260022800709000
B0120533321261S14756024EA002340023000909000
B0120583321219S14755998EA002460023800809000
B0121033321178S14755972EA002530024901009000
B0121083321135S14755956EA002660026300709000
B0121133321092S14755961EA002820027800709000
B0121183321058S14755973EA003010030100809000
B0121233321019S14755996EA003120031900709000
F01212801040711131517262830
B0121283320984S14756028EA003230033300910000
B0121333320953S14756058EA003370034800810000
B0121383320922S14756095EA003400035500810000
B0121433320895S14756138EA003460036500910000
B0121483320871S14756187EA003560037400910000
B0121533320849S14756244EA003630038500610000
B0121583320832S14756300EA003790039700910000
B0122033320817S14756353EA004050041300710000
B0122083320802S14756407EA004260043800910000
B0122133320786S14756459EA004420046200910000
B0122183320771S14756512EA004490047600910000
B0122233320751S14756557EA004650048900810000
B0122283320734S14756605EA004900050600610000
B0122333320716S14756655EA005140052600610000
B0122383320700S14756709EA005240054600710000
B0122433320686S14756759EA005470056500810000
B0122483320673S14756813EA005670058400810000
B0122533320667S14756868EA005930060900710000
B0122583320672S14756931EA006140063300710000
B0123033320681S14756993EA006290065400610000
B0123083320691S14757054EA006440067100510000
B0123133320709S14757118EA006620068800710000
B0123183320744S14757178EA006810070400710000
B0123233320786S14757227EA006990072100710000
B0123283320829S14757265EA007240074200610000
B0123333320877S14757296EA007380076301010000
B0123383320931S14757301EA007440077600810000
B0123433320976S14757291EA007500078300710000
B0123483321015S14757272EA007550079000910000
B0123533321043S14757237EA007640079500810000
B0123583321053S14757193EA007700080000610000
B0124033321041S14757152EA007800080700610000
B0124083321018S14757115EA007860081100610000
B0124133320985S14757089EA007970081800710000
B0124183320947S14757070EA008160083100610000
B0124233320902S14757052EA008330085000710000
B0124283320861S14757030EA008450086600910000
B0124333320821S14757014EA008550088000910000
B0124383320782S14757005EA008640089200810000
B0124433320741S14757014EA008750090200610000
B0124483320705S14757042EA008850091400610000
B0124533320677S14757084EA008970092600710000
B0124583320646S14757119EA009050093600410000
B0125033320607S14757132EA009080094200410000
B0125083320567S14757124EA009100094600610000
B0125133320534S14757099EA009100094900710000
B0125183320507S14757065EA009150095000510000
B0125233320482S14757025EA009220095300610000
B0125283320456S14756988EA009380096000610000
B0125333320432S14756950EA009470096800610000
B0125383320409S14756910EA009550097700710000
B0125433320388S14756871EA009570098200710000
B0125483320396S14756848EA009590098700710000
B0125533320429S14756839EA009580099000610000
B0125583320465S14756839EA009510098900610000
B0126033320502S14756844EA009500098500810000
B0126083320545S14756847EA009450098100710000
B0126133320584S14756855EA009410097800810000
F012618040711131517262830
B0126183320621S14756866EA009380097400909000
B0126233320657S14756875EA009360097000809000
B0126283320692S14756881EA009330096700709000
B0126333320723S14756877EA009310096500709000
F01263801040711131517262830
B0126383320751S14756870EA009290096300810000
B0126433320783S14756862EA009200096001210000
B0126483320792S14756840EA009140095600610000
B0126533320787S14756813EA009110095100710000
B0126583320761S14756811EA009040094600710000
B0127033320736S14756842EA009040094201010000
B0127083320713S14756860EA008990093900510000
B0127133320698S14756846EA008990093600610000
B0127183320695S14756828EA008950093400610000
B0127233320686S14756808EA008920093200610000
B0127283320677S14756790EA008910093000610000
B0127333320668S14756774EA008890092800610000
B0127383320669S14756754EA008890092500610000
B0127433320694S14756740EA008850092200910000
B0127483320719S14756734EA008790091900710000
B0127533320746S14756717EA008800091501110000
B0127583320760S14756692EA008790091100710000
B0128033320759S14756669EA008800091000710000
B0128083320768S14756652EA008760090900710000
B0128133320789S14756640EA008710090600810000
B0128183320812S14756644EA008620090200710000
B0128233320839S14756663EA008550089400910000
B0128283320871S14756686EA008440088201410000
B0128333320898S14756668EA008350087301210000
B0128383320910S14756645EA008350086901010000
B0128433320922S14756623EA008280086300910000
B0128483320934S14756597EA008160085600810000
B0128533320938S14756571EA008090085000810000
B0128583320943S14756549EA008010084000710000
B0129033320951S14756526EA007880083100710000
B0129083320956S14756496EA007780082200810000
B0129133320957S14756468EA007690081100610000
B0129183320960S14756438EA007590079700610000
B0129233320966S14756409EA007470078300410000
B0129283320968S14756378EA007340076700410000
B0129333320969S14756344EA007170075200510000
B0129383320968S14756313EA007090073700510000
B0129433320971S14756283EA006890072300610000
B0129483320977S14756246EA006760070600810000
B0129533320979S14756212EA006770069300910000
B0129583320958S14756194EA006810069101410000
B0130033320942S14756231EA006810069401510000
B0130083320971S14756257EA006750069200810000
B0130133320995S14756245EA006740069001210000
B0130183321008S14756221EA006770069100910000
B0130233321026S14756193EA006800069200810000
B0130283321026S14756172EA006740069300610000
B0130333321003S14756171EA006640069000810000
B0130383320974S14756200EA006540068400910000
B0130433320965S14756241EA006510067601410000
B0130483321003S14756258EA006460066701310000
B0130533321025S14756242EA006460066501110000
B0130583321035S14756217EA006350066000910000
B0131033321040S14756183EA006200065400910000
B0131083321047S14756146EA006220064600710000
B0131133321054S14756116EA006270064200710000
B0131183321058S14756084EA006260064201110000
B0131233321038S14756098EA006280064201410000
B0131283321047S14756151EA006260064301310000
B0131333321084S14756175EA006300064301110000
B0131383321117S14756161EA006310064601410000
B0131433321114S14756134EA006320064801210000
B0131483321092S14756135EA006310064801110000
B0131533321070S14756166EA006320064900810000
B0131583321081S14756212EA006300065101710000
B0132033321125S14756228EA006300065201210000
B0132083321156S14756206EA006280064901110000
B0132133321154S14756178EA006270064600910000
B0132183321127S14756167EA006240064200710000
B0132233321099S14756173EA006290064501010000
B0132283321079S14756201EA006380065000710000
B0132333321080S14756251EA006480065701410000
B0132383321114S14756278EA006520066301110000
B0132433321149S14756267EA006510066800710000
B0132483321159S14756238EA006570067200710000
B0132533321135S14756230EA006610067700710000
B0132583321110S14756254EA006670068100810000
B0133033321085S14756284EA006640068100510000
B0133083321071S14756323EA006570067800510000
B0133133321086S14756365EA006540067400810000
B0133183321119S14756372EA006510067001110000
B0133233321147S14756357EA006540067101010000
B0133283321152S14756332EA006580067400610000
B0133333321133S14756324EA006560067500910000
B0133383321110S14756340EA006440067100910000
B0133433321106S14756382EA006330066201010000
B0133483321117S14756428EA006300065400910000
B0133533321137S14756470EA006250064700910000
B0133583321174S14756495EA006230064400810000
B0134033321204S14756486EA006220064200910000
B0134083321219S14756459EA006190064100710000
B0134133321211S14756431EA006120063700510000
B0134183321199S14756411EA006120063700610000
B0134233321189S14756386EA006030063300610000
B0134283321191S14756350EA006030063000610000
B0134333321196S14756319EA006060062700610000
B0134383321202S14756289EA006030062400510000
B0134433321205S14756263EA006000062200510000
B0134483321199S14756239EA005920061900610000
B0134533321197S14756210EA005890061900710000
B0134583321224S14756188EA005870061400910000
B0135033321252S14756171EA005910061300810000
B0135083321284S14756163EA005960061400510000
B0135133321321S14756182EA006020061600810000
B0135183321325S14756224EA006120062601010000
B0135233321302S14756234EA006210064000810000
B0135283321296S14756205EA006300064901210000
B0135333321329S14756193EA006340065500710000
B0135383321364S14756219EA006470066000810000
B0135433321369S14756260EA006550066901010000
B0135483321349S14756278EA006600067701010000
B0135533321330S14756259EA006720068700710000
B0135583321339S14756235EA006760069400710000
B0136033321378S14756248EA006810069801310000
B0136083321392S14756298EA006910070601210000
B0136133321368S14756317EA006980071700810000
B0136183321358S14756287EA007070072401110000
B0136233321399S14756294EA007110073200810000
B0136283321413S14756343EA007210073601310000
B0136333321390S14756363EA007300074801010000
B0136383321376S14756334EA007410075800910000
B0136433321399S14756311EA007470076600810000
B0136483321435S14756304EA007530077600610000
B0136533321472S14756325EA007560078100710000
B0136583321481S14756370EA007650078600810000
B0137033321461S14756390EA007740079601010000
B0137083321453S14756363EA007780080101010000
B0137133321484S14756347EA007810080600610000
B0137183321522S14756366EA007960081400810000
B0137233321540S14756411EA008080082701110000
B0137283321528S14756445EA008200084300610000
B0137333321513S14756425EA008330086000810000
B0137383321539S14756406EA008490087701210000
B0137433321570S14756443EA008590089001010000
B0137483321557S14756472EA008680090301110000
B0137533321552S14756444EA008800091101210000
B0137583321591S14756459EA008900092101210000
B0138033321590S14756506EA009020093001310000
B0138083321565S14756513EA009150094700710000
B0138133321560S14756488EA009300095900810000
B0138183321585S14756472EA009410096900610000
B0138233321623S14756495EA009480097900910000
B0138283321649S14756542EA009630099000910000
B0138333321643S14756584EA009760100800910000
B0138383321615S14756596EA009920102700410000
B0138433321593S14756583EA010070104500510000
B0138483321595S14756557EA010200106000710000
B0138533321628S14756556EA010260107100610000
B0138583321663S14756590EA010410108000910000
B0139033321668S14756633EA010550109400810000
B0139083321642S14756659EA010670110900510000
B0139133321614S14756655EA010760112000610000
B0139183321600S14756636EA010850112800710000
B0139233321603S14756606EA010890113500610000
F013928010407111315172628
B0139283321630S14756585EA010980114100509000
F01393301040711131517262830
B0139333321667S14756576EA011060114600910000
B0139383321682S14756545EA011200115400710000
B0139433321663S14756532EA011300116801010000
B0139483321631S14756568EA011390118201210000
B0139533321623S14756612EA011530119801210000
B0139583321653S14756643EA011580120201110000
B0140033321681S14756630EA011690121201010000
B0140083321683S14756598EA011790122200610000
F0140130104060711131517262830
B0140133321669S14756581EA011820123700511000
B0140183321634S14756596EA011910124400811000
B0140233321606S14756634EA011980125400711000
B0140283321602S14756685EA012000125801011000
B0140333321631S14756721EA012040126000511000
B0140383321667S14756732EA012060126200511000
B0140433321692S14756714EA012120126500811000
B0140483321693S14756683EA012250127400511000
B0140533321671S14756664EA012350128400511000
B0140583321641S14756676EA012400129200911000
B0141033321621S14756722EA012410129500711000
B0141083321617S14756771EA012430129900811000
B0141133321639S14756814EA012470130200411000
B0141183321676S14756823EA012480130300411000
B0141233321705S14756804EA012520130400611000
B0141283321717S14756776EA012560130700511000
B0141333321713S14756745EA012620131700611000
B0141383321703S14756718EA012710132600411000
B0141433321678S14756697EA012820133400611000
B0141483321642S14756715EA012880134300711000
B0141533321625S14756761EA012970135200711000
B0141583321634S14756814EA012990135800711000
B0142033321673S14756841EA013020135900511000
B0142083321712S14756853EA013070136200411000
B0142133321744S14756837EA013060136400711000
B0142183321755S14756806EA013120136800511000
B0142233321750S14756771EA013230137700411000
B0142283321729S14756746EA013360139000411000
B0142333321702S14756730EA013470140200411000
B0142383321670S14756732EA013570141500411000
B0142433321637S14756754EA013710142700511000
B0142483321612S14756789EA013820144100411000
B0142533321596S14756833EA013940145300411000
B0142583321597S14756881EA014010146200611000
B0143033321613S14756929EA014110147100611000
B0143083321647S14756969EA014150147600611000
B0143133321683S14756976EA014190148000511000
B0143183321710S14756960EA014230148500511000
B0143233321717S14756933EA014270148800611000
B0143283321714S14756902EA014340149200511000
B0143333321713S14756873EA014420150000411000
B0143383321707S14756846EA014550151100411000
B0143433321702S14756817EA014670152700511000
B0143483321705S14756791EA014780154000411000
B0143533321712S14756764EA014880155000311000
B0143583321716S14756733EA014930155900411000
B0144033321721S14756699EA015010156500311000
B0144083321731S14756664EA015090157100411000
B0144133321735S14756628EA015170157800611000
B0144183321718S14756599EA015260158800411000
B0144233321684S14756592EA015380160000411000
B0144283321648S14756608EA015470161000411000
F01443301040607111315172830
B0144333321621S14756635EA015520161900610000
F0144380104060711131517262830
B0144383321594S14756667EA015480161900711000
B0144433321568S14756709EA015340161100811000
B0144483321572S14756761EA015160159301111000
B0144533321610S14756784EA015070157500611000
B0144583321647S14756791EA015060157000511000
B0145033321682S14756797EA015080156900511000
B0145083321713S14756809EA015150157100511000
B0145133321748S14756803EA015240157600711000
B0145183321756S14756775EA015390158900611000
B0145233321732S14756765EA015510160500611000
B0145283321703S14756784EA015590161800611000
B0145333321685S14756823EA015610162500711000
B0145383321683S14756868EA015620162800711000
B0145433321708S14756902EA015590162700411000
B0145483321745S14756909EA015690162700411000
B0145533321784S14756917EA015890163800511000
B0145583321812S14756902EA016110166501111000
B0146033321788S14756892EA016300169201211000
B0146083321784S14756946EA016490171901411000
B0146133321819S14756970EA016720174200711000
B0146183321832S14756946EA016890176400911000
B0146233321808S14756929EA017110178700611000
B0146283321776S14756945EA017310180800511000
B0146333321760S14756985EA017410182200511000
B0146383321764S14757037EA017540183400711000
B0146433321786S14757075EA017680184700411000
B0146483321818S14757078EA017850185900511000
B0146533321834S14757055EA017980187300511000
B0146583321826S14757029EA018150189200611000
B0147033321788S14757027EA018340191200711000
B0147083321761S14757062EA018450192500911000
B0147133321762S14757116EA018510193200811000
B0147183321784S14757157EA018540193500411000
B0147233321815S14757165EA018680194200611000
B0147283321835S14757147EA018820195400711000
B0147333321827S14757121EA018950197000711000
B0147383321788S14757123EA019060198400911000
B0147433321758S14757158EA019120199400811000
B0147483321749S14757208EA019090199700811000
B0147533321770S14757255EA019070199400911000
B0147583321797S14757283EA019140199600511000
B0148033321827S14757298EA019270200500411000
B0148083321856S14757294EA019380201400411000
B0148133321875S14757270EA019480202400511000
B0148183321889S14757242EA019620203900711000
B0148233321892S14757209EA019750205400311000
B0148283321883S14757180EA019900207100411000
B0148333321848S14757176EA020010208400511000
B0148383321821S14757208EA020080209400711000
B0148433321808S14757254EA020130210000411000
B0148483321805S14757309EA020140210400411000
B0148533321791S14757355EA020230210700411000
B0148583321780S14757407EA020230210900711000
B0149033321798S14757450EA020270211200611000
B0149083321829S14757473EA020280211300511000
B0149133321863S14757489EA020330211700511000
B0149183321904S14757502EA020330211800411000
B0149233321943S14757512EA020350211900411000
B0149283321980S14757500EA020350212000411000
B0149333322009S14757481EA020310211800411000
B0149383322030S14757454EA020260211500711000
B0149433322043S14757427EA020210211200411000
B0149483322056S14757399EA020210210800411000
B0149533322074S14757373EA020230210800511000
B0149583322086S14757346EA020270211100411000
B0150033322091S14757314EA020320211600511000
B0150083322085S14757282EA020410212300311000
B0150133322073S14757253EA020550213700511000
B0150183322052S14757234EA020640214900511000
B0150233322018S14757233EA020700215800411000
B0150283321983S14757246EA020780216600611000
B0150333321949S14757273EA020760216900511000
B0150383321916S14757308EA020620216600811000
B0150433321884S14757348EA020530215400711000
B0150483321857S14757387EA020410214100711000
B0150533321847S14757437EA020290212600611000
B0150583321857S14757489EA020200211300611000
B0151033321889S14757526EA020130210200411000
B0151083321925S14757545EA020130209600511000
B0151133321960S14757562EA020150209500411000
B0151183321992S14757571EA020120209500311000
B0151233322022S14757563EA020100209400411000
B0151283322057S14757558EA020050209100411000
B0151333322081S14757537EA019960208600611000
B0151383322082S14757502EA019900208000411000
B0151433322077S14757467EA019860207500811000
B0151483322078S14757433EA019850207400411000
B0151533322077S14757394EA019850207200411000
B0151583322069S14757363EA019860207200411000
B0152033322057S14757335EA019830207000411000
B0152083322042S14757306EA019740206700511000
B0152133322006S14757297EA019680205800411000
B0152183321967S14757304EA019710205600511000
B0152233321929S14757325EA019720205800811000
B0152283321901S14757365EA019700205700911000
B0152333321884S14757415EA019660205500511000
B0152383321866S14757466EA019620205100811000
B0152433321872S14757515EA019490204301011000
B0152483321897S14757550EA019430203200511000
B0152533321924S14757581EA019350202300411000
B0152583321952S14757611EA019270201300511000
B0153033321988S14757620EA019200200600411000
B0153083322016S14757603EA019140200000511000
B0153133322037S14757583EA019080199300511000
B0153183322054S14757559EA019020198800511000
B0153233322067S14757535EA018980198500511000
B0153283322063S14757504EA018920198100511000
B0153333322032S14757480EA018880197400511000
B0153383322000S14757468EA018850197100511000
B0153433321964S14757473EA018770196400511000
B0153483321929S14757494EA018660195500711000
B0153533321897S14757536EA018520194100711000
B0153583321875S14757587EA018490193300711000
B0154033321855S14757630EA018420192600611000
B0154083321829S14757672EA018310191500411000
B0154133321798S14757703EA018170190300411000
B0154183321764S14757733EA018020188900311000
B0154233321726S14757753EA017890187400411000
B0154283321686S14757771EA017820186100411000
B0154333321650S14757808EA017780185300411000
B0154383321616S14757841EA017780185100411000
B0154433321588S14757881EA017780185100611000
B0154483321568S14757936EA017670184400711000
B0154533321554S14757988EA017580183600511000
B0154583321532S14758034EA017510182800611000
B0155033321507S14758076EA017450182000611000
B0155083321485S14758121EA017380181400511000
B0155133321459S14758162EA017270180700611000
B0155183321430S14758206EA017200179700911000
B0155233321407S14758253EA017070178600711000
B0155283321387S14758308EA016960177200611000
F01553301040607111517262830
B0155333321369S14758361EA016870176300710000
F0155380104060711131517262830
B0155383321352S14758416EA016690174800711000
B0155433321342S14758472EA016510172800411000
B0155483321338S14758531EA016390171200311000
B0155533321329S14758590EA016260169600411000
B0155583321327S14758650EA016120168100511000
B0156033321324S14758709EA016050167100511000
B0156083321317S14758766EA016010166600611000
B0156133321306S14758825EA015950166000411000
B0156183321303S14758884EA015930165800411000
F01562301060711131517262830
B0156233321301S14758939EA015920165700410000
B0156283321312S14758992EA015870165600610000
B0156333321331S14759036EA015840165400410000
B0156383321352S14759082EA015820165300610000
B0156433321373S14759124EA015820165300510000
B0156483321390S14759168EA015790165300410000
B0156533321406S14759211EA015710164700510000
B0156583321420S14759254EA015590163600510000
B0157033321439S14759295EA015490162300510000
F015708010611131517262830
B0157083321456S14759334EA015360161100509000
B0157133321478S14759381EA015260159800709000
B0157183321496S14759432EA015240158900809000
B0157233321508S14759484EA015230158400409000
F01572801060711131517262830
B0157283321514S14759537EA015250158500710000
B0157333321521S14759591EA015260158800510000
B0157383321529S14759639EA015230158800510000
B0157433321538S14759686EA015180158600510000
B0157483321544S14759737EA015160158300410000
B0157533321551S14759788EA015080157800510000
B0157583321561S14759839EA015030157200410000
B0158033321574S14759888EA014950156600510000
B0158083321593S14759934EA014880155800410000
B0158133321613S14759981EA014760154700510000
B0158183321632S14800028EA014670153700410000
B0158233321652S14800073EA014550152400510000
B0158283321671S14800121EA014390150800410000
B0158333321686S14800172EA014260149300510000
B0158383321696S14800222EA014130147800410000
B0158433321708S14800278EA013950146200410000
B0158483321720S14800335EA013850144700410000
B0158533321735S14800392EA013680143100610000
B0158583321747S14800452EA013530141500510000
B0159033321755S14800509EA013470140300510000
B0159083321759S14800556EA013440139700610000
B0159133321754S14800608EA013330139100710000
B0159183321751S14800659EA013240138400510000
B0159233321763S14800714EA013120137400510000
B0159283321779S14800766EA012970136100510000
B0159333321797S14800826EA012730133800610000
B0159383321808S14800888EA012530131300510000
B0159433321810S14800951EA012320128900410000
B0159483321806S14801010EA012190127100410000
B0159533321806S14801071EA012030125400510000
B0159583321809S14801132EA011920124000410000
B0200033321813S14801194EA011820122900410000
B0200083321816S14801254EA011750122000510000
B0200133321822S14801313EA011700121700510000
B0200183321829S14801373EA011670121500410000
B0200233321833S14801431EA011630121200410000
B0200283321834S14801484EA011550120600510000
B0200333321835S14801537EA011430119500410000
B0200383321840S14801590EA011350118500510000
B0200433321852S14801647EA011350118000610000
B0200483321863S14801696EA011420118400910000
B0200533321829S14801713EA011460119201110000
B0200583321824S14801683EA011470119700810000
B0201033321845S14801664EA011520120000610000
B0201083321881S14801670EA011490120200510000
B0201133321915S14801711EA011450120000510000
B0201183321918S14801767EA011450119700610000
B0201233321893S14801817EA011460119500610000
B0201283321854S14801853EA011510119900510000
F020133010607131517262830
B0201333321821S14801871EA011470120200609000
F02013801060711131517262830
B0201383321786S14801879EA011380119800510000
B0201433321757S14801867EA011310119200510000
B0201483321735S14801838EA011290118800710000
B0201533321729S14801812EA011200118400410000
B0201583321719S14801784EA011030117400410000
B0202033321733S14801762EA010850115400610000
B0202083321769S14801766EA010690112900610000
B0202133321800S14801814EA010510110600510000
B0202183321819S14801872EA010340108500410000
B0202233321835S14801935EA010210106600610000
B0202283321849S14802003EA010100104900610000
B0202333321858S14802066EA010050104300610000
B0202383321862S14802128EA010030104100610000
B0202433321870S14802192EA009980103800510000
B0202483321880S14802256EA010000103900510000
B0202533321889S14802316EA009990103900410000
B0202583321900S14802376EA009840103300510000
B0203033321907S14802428EA009720102100510000
B0203083321915S14802483EA009650100900510000
B0203133321927S14802538EA009590100100610000
B0203183321937S14802596EA009490099200410000
B0203233321944S14802655EA009400098200510000
B0203283321951S14802714EA009290097300610000
B0203333321954S14802779EA009130095800510000
B0203383321955S14802838EA009090095100510000
B0203433321950S14802895EA009130094800610000
B0203483321955S14802953EA009150094800810000
B0203533321990S14802967EA009120095000910000
B0203583322003S14802939EA009120095100710000
B0204033321984S14802913EA009120095100610000
B0204083321950S14802913EA009080094900710000
B0204133321914S14802944EA009070094700810000
B0204183321888S14802985EA009040094500710000
B0204233321874S14803038EA009030094200610000
B0204283321888S14803089EA009060094300710000
B0204333321920S14803112EA009040094300610000
B0204383321951S14803109EA009030094200410000
B0204433321978S14803088EA009030094100610000
B0204483321977S14803056EA009020094200910000
B0204533321957S14803031EA008990094000710000
B0204583321932S14803011EA008930093700610000
B0205033321904S14802999EA008850093100610000
B0205083321872S14803011EA008740092200710000
B0205133321837S14803042EA008660091200610000
B0205183321809S14803072EA008630090400510000
B0205233321777S14803102EA008630090000410000
B0205283321742S14803132EA008680090000510000
B0205333321718S14803177EA008770090600810000
B0205383321739S14803223EA008800091400910000
B0205433321774S14803208EA008830091901210000
B0205483321763S14803179EA008920092600710000
B0205533321732S14803178EA008990093400810000
B0205583321712S14803210EA009050094100510000
B0206033321711S14803259EA009110094800510000
B0206083321736S14803300EA009120095300810000
B0206133321777S14803298EA009160095800610000
B0206183321796S14803275EA009190096200610000
B0206233321781S14803248EA009180096200510000
B0206283321750S14803232EA009220096400510000
B0206333321727S14803217EA009290096900510000
B0206383321708S14803201EA009370097500410000
B0206433321684S14803194EA009390097800610000
B0206483321663S14803231EA009530098701210000
B0206533321688S14803281EA009550099700910000
B0206583321727S14803305EA009660100800610000
B0207033321751S14803282EA009690101300610000
B0207083321746S14803253EA009790102300610000
B0207133321715S14803245EA009870103101010000
B0207183321687S14803276EA009950103900810000
B0207233321683S14803322EA010050104900910000
B0207283321712S14803365EA010010105100810000
B0207333321753S14803387EA010090105400710000
B0207383321792S14803380EA010080105600610000
B0207433321808S14803348EA010050105301010000
B0207483321799S14803315EA010010104900410000
B0207533321769S14803302EA010020104800610000
B0207583321732S14803313EA010090105000610000
B0208033321697S14803327EA010170105700510000
B0208083321674S14803362EA010250106600710000
B0208133321683S14803409EA010270107200510000
B0208183321716S14803436EA010300107600710000
B0208233321746S14803430EA010310107900510000
B0208283321757S14803406EA010320108000410000
B0208333321755S14803374EA010340107900410000
B0208383321736S14803355EA010360108100710000
B0208433321706S14803365EA010390108300710000
B0208483321683S14803396EA010460108600810000
B0208533321659S14803428EA010580109800610000
B0208583321652S14803474EA010670111000810000
B0209033321686S14803502EA010740112000610000
B0209083321707S14803488EA010800112700710000
B0209133321702S14803454EA010780113000510000
B0209183321706S14803417EA010850113400410000
B0209233321694S14803392EA010970114100910000
B0209283321664S14803410EA011080115101110000
B0209333321659S14803458EA011210116700910000
B0209383321685S14803501EA011380118300910000
B0209433321719S14803507EA011480119700510000
B0209483321741S14803485EA011510120600510000
B0209533321746S14803451EA011570121300510000
B0209583321735S14803429EA011690122400510000
B0210033321711S14803425EA011820123700910000
B0210083321690S14803451EA011910124600710000
B0210133321682S14803497EA012030125400810000
B0210183321713S14803528EA012190126600910000
B0210233321746S14803516EA012310128100610000
B0210283321748S14803485EA012440129400610000
B0210333321725S14803474EA012520130600510000
B0210383321697S14803491EA012520131100710000
B0210433321673S14803526EA012590131500810000
B0210483321666S14803571EA012700132200910000
B0210533321696S14803612EA012830133501010000
B0210583321737S14803610EA013080135500810000
F0211030106071113151724262830
B0211033321759S14803583EA013250137800811000
B0211083321758S14803556EA013340139600511000
B0211133321733S14803545EA013320140200811000
B0211183321703S14803562EA013310139800711000
B0211233321699S14803614EA013320139500711000
B0211283321725S14803665EA013380139900611000
B0211333321761S14803685EA013610141300611000
B0211383321792S14803662EA013820143500511000
B0211433321793S14803631EA013920145300611000
B0211483321774S14803616EA013910146400611000
B0211533321747S14803634EA013860145900511000
B0211583321742S14803687EA013840145500611000
B0212033321774S14803737EA013900145400811000
B0212083321816S14803771EA014080146500911000
B0212133321855S14803768EA014270148400511000
B0212183321872S14803743EA014410150200411000
B0212233321860S14803724EA014450151100511000
B0212283321836S14803739EA014420151500611000
B0212333321829S14803796EA014430151400811000
B0212383321859S14803844EA014530152100911000
B0212433321906S14803845EA014610152800511000
B0212483321935S14803827EA014720153800511000
B0212533321944S14803802EA014870154900411000
B0212583321933S14803781EA014900155700511000
B0213033321911S14803771EA014920156100411000
B0213083321887S14803778EA014960156500311000
B0213133321866S14803810EA014950156600411000
B0213183321856S14803857EA014960156700411000
B0213233321863S14803912EA015050157200611000
B0213283321894S14803952EA015170158100611000
B0213333321933S14803960EA015200158700611000
B0213383321963S14803938EA015230159100711000
B0213433321984S14803915EA015270159700511000
B0213483321994S14803890EA015270159800511000
B0213533321984S14803869EA015260159600511000
B0213583321963S14803867EA015300159700411000
B0214033321937S14803875EA015300159800411000
B0214083321915S14803895EA015330160000311000
B0214133321896S14803936EA015330160100311000
B0214183321881S14803986EA015340160200411000
B0214233321885S14804036EA015370160500711000
B0214283321908S14804086EA015470160800411000
B0214333321934S14804113EA015590162000711000
B0214383321962S14804100EA015670163100511000
B0214433321972S14804079EA015710164000311000
B0214483321959S14804074EA015690164100611000
B0214533321940S14804102EA015690163900511000
B0214583321944S14804153EA015720164100511000
B0215033321972S14804190EA015860164900911000
B0215083322011S14804193EA015950166100411000
B0215133322039S14804183EA016000167200411000
B0215183322053S14804161EA015970167300411000
B0215233322043S14804141EA016040167500411000
B0215283322015S14804154EA016060167700411000
B0215333321989S14804174EA016060167900411000
B0215383321965S14804202EA016010167500311000
B0215433321937S14804234EA016030167200411000
B0215483321903S14804272EA016190167900811000
B0215533321918S14804315EA016300169200911000
B0215583321944S14804295EA016440171000811000
B0216033321923S14804275EA016570172901111000
B0216083321894S14804308EA016750174400611000
B0216133321893S14804363EA016820175701011000
B0216183321930S14804382EA016900176600711000
B0216233321943S14804356EA016970177400511000
F02162801061113151724262830
B0216283321938S14804331EA017140178600610000
B0216333321916S14804338EA017200179700710000
B0216383321896S14804390EA017210180000510000
B0216433321889S14804449EA017270180400910000
B0216483321910S14804493EA017290180800910000
B0216533321943S14804507EA017320181000510000
B0216583321971S14804492EA017350181100410000
B0217033321992S14804466EA017390181500510000
B0217083322012S14804438EA017500182100510000
B0217133322009S14804414EA017610183200910000
B0217183321982S14804450EA017720184201010000
B0217233321983S14804501EA017790185300510000
B0217283322004S14804547EA017850186100610000
B0217333322036S14804560EA017840186400510000
B0217383322066S14804546EA017850186500410000
B0217433322083S14804523EA017870186600510000
B0217483322073S14804501EA017900186900410000
B0217533322043S14804494EA017920186900710000
B0217583322015S14804517EA017960187500510000
B0218033322004S14804569EA018020187900610000
B0218083322013S14804621EA018100188801110000
B0218133322048S14804633EA018090189000710000
B0218183322072S14804614EA018070188900910000
B0218233322067S14804583EA018140188900510000
B0218283322038S14804573EA018160189300510000
B0218333322005S14804584EA018230189700510000
B0218383321967S14804611EA018200189900510000
B0218433321951S14804661EA018170189800510000
B0218483321961S14804712EA018180189900510000
B0218533321987S14804749EA018160189800710000
B0218583322017S14804749EA018140189800610000
B0219033322034S14804728EA018160189800610000
B0219083322042S14804701EA018190189900510000
B0219133322040S14804676EA018240190200410000
B0219183322034S14804652EA018320190600310000
B0219233322010S14804644EA018410191300510000
B0219283321985S14804678EA018520192500510000
B0219333321986S14804729EA018550193301010000
B0219383322010S14804763EA018520193400810000
B0219433322045S14804775EA018540193700610000
B0219483322066S14804759EA018520193700710000
B0219533322052S14804731EA018570193900610000
B0219583322024S14804726EA018690194700610000
B0220033321998S14804759EA018810195900610000
B0220083321996S14804811EA018830196500810000
B0220133322020S14804848EA018820196500810000
B0220183322051S14804854EA018830196500410000
B0220233322065S14804830EA018800196300710000
B0220283322059S14804806EA018830196400510000
B0220333322027S14804800EA018880196601010000
B0220383321991S14804819EA018970197300410000
B0220433321961S14804847EA018990197800510000
B0220483321943S14804895EA018970197900510000
B0220533321953S14804949EA018920197701010000
B0220583321980S14804993EA018840197200710000
B0221033322007S14805031EA018810196700510000
B0221083322035S14805058EA018750196200610000
B0221133322070S14805060EA018670195500410000
B0221183322103S14805065EA018630194900510000
B0221233322133S14805076EA018640194600610000
B0221283322165S14805093EA018630194300510000
B0221333322196S14805111EA018610194200510000
B0221383322230S14805132EA018620194300610000
B0221433322259S14805164EA018640194500510000
B0221483322281S14805202EA018660194700310000
B0221533322299S14805244EA018700194900410000
B0221583322318S14805289EA018750195300510000
B0222033322347S14805320EA018780196000810000
B0222083322387S14805339EA018800196300910000
B0222133322401S14805387EA018810196400810000
F022218010611131724262830
B0222183322381S14805427EA018780196200709000
F02222301061113151724262830
B0222233322348S14805431EA018750195800710000
B0222283322338S14805403EA018760195900510000
B0222333322342S14805379EA018790196100410000
B0222383322366S14805363EA018810196200310000
B0222433322394S14805358EA018820196400310000
B0222483322424S14805359EA018820196600410000
B0222533322459S14805378EA018740196200810000
B0222583322490S14805410EA018660195600610000
B0223033322516S14805451EA018640195200610000
B0223083322541S14805496EA018630194800510000
B0223133322563S14805542EA018610194600510000
B0223183322587S14805586EA018550194100510000
B0223233322608S14805635EA018500193600410000
B0223283322622S14805693EA018470193100610000
B0223333322639S14805746EA018400192300610000
B0223383322663S14805795EA018340191600510000
B0223433322685S14805844EA018310191200410000
B0223483322701S14805894EA018270190800410000
B0223533322723S14805942EA018160190000510000
B0223583322746S14805990EA018070189200510000
B0224033322766S14806039EA018000188300410000
B0224083322787S14806087EA017920187500610000
B0224133322810S14806136EA017830186700610000
B0224183322830S14806184EA017740185600510000
B0224233322847S14806234EA017630184500510000
B0224283322866S14806281EA017520183300610000
B0224333322884S14806329EA017380181900510000
B0224383322899S14806381EA017220180200410000
F022443010611131517262830
B0224433322913S14806435EA017030178100509000
F02244801061113151724262830
B0224483322932S14806492EA016860176100410000
B0224533322950S14806548EA016700174500410000
B0224583322968S14806601EA016580173100410000
B0225033322988S14806655EA016420171600410000
B0225083323006S14806709EA016410170600510000
B0225133323018S14806749EA016390170500410000
B0225183323024S14806796EA016400170300610000
B0225233323042S14806833EA016330170401210000
B0225283323073S14806842EA016210169800710000
B0225333323100S14806870EA016110168900610000
B0225383323131S14806900EA015980167700610000
B0225433323165S14806926EA015950167000510000
B0225483323190S14806959EA015910166400610000
B0225533323208S14807000EA015820165700410000
B0225583323222S14807043EA015760165000410000
B0226033323232S14807083EA015680164200410000
F022608011113151724262830
B0226083323239S14807125EA015590163200809000
F02261301061113151724262830
B0226133323249S14807165EA015520162600410000
B0226183323264S14807204EA015410161700410000
B0226233323279S14807248EA015260160500510000
B0226283323291S14807299EA015100158900910000
B0226333323316S14807341EA014940157100610000
B0226383323348S14807378EA014810155300510000
B0226433323376S14807417EA014700153900710000
B0226483323400S14807459EA014520152300610000
B0226533323426S14807510EA014430150800610000
B0226583323451S14807558EA014350149800510000
B0227033323477S14807605EA014280149000710000
B0227083323510S14807644EA014180148200810000
B0227133323541S14807683EA014120147500610000
B0227183323576S14807719EA013970146600710000
B0227233323604S14807753EA013840145400610000
B0227283323630S14807798EA013580143300910000
B0227333323664S14807826EA013450141500810000
B0227383323697S14807841EA013320139700610000
B0227433323731S14807860EA013150137800610000
B0227483323763S14807891EA013030136100610000
B0227533323790S14807925EA012930134700610000
B0227583323820S14807960EA012850133800610000
B0228033323847S14807992EA012810133300710000
B0228083323871S14808027EA012690132300610000
B0228133323889S14808062EA012570131200510000
B0228183323916S14808103EA012360129700510000
B0228233323945S14808147EA012320128600610000
F022828010613151724262830
B0228283323970S14808181EA012270127800709000
B0228333323992S14808217EA012200127200409000
B0228383324016S14808253EA012120126700709000
B0228433324037S14808289EA012100126300609000
B0228483324059S14808328EA012080126100709000
B0228533324079S14808370EA012040125700709000
B0228583324095S14808415EA012030125500709000
B0229033324124S14808445EA012050125501309000
B0229083324155S14808430EA012090125900909000
B0229133324146S14808404EA012070125901009000
B0229183324118S14808410EA012130126200709000
B0229233324108S14808447EA012170126300709000
B0229283324131S14808484EA012190126501109000
B0229333324166S14808477EA012200126800909000
B0229383324184S14808452EA012220127000609000
B0229433324185S14808425EA012230127100609000
B0229483324169S14808403EA012210126900709000
B0229533324147S14808390EA012230127000409000
B0229583324119S14808393EA012210126900609000
B0230033324097S14808422EA012130126600409000
B0230083324088S14808466EA012080126100409000
B0230133324085S14808511EA012040125700509000
B0230183324099S14808557EA011980125200709000
B0230233324122S14808593EA011980125000509000
B0230283324152S14808628EA012050125300709000
B0230333324153S14808675EA012130126301309000
B0230383324122S14808697EA012350127800709000
B0230433324108S14808679EA012510129400909000
B0230483324133S14808675EA012600131000809000
B0230533324146S14808714EA012710132101109000
B0230583324116S14808731EA012860133600909000
B0231033324121S14808703EA012990135200809000
B0231083324144S14808691EA013070136300709000
B0231133324174S14808702EA013100137000809000
B0231183324191S14808745EA013290137901309000
B0231233324160S14808757EA013410139200809000
B0231283324147S14808726EA013480140301009000
B0231333324157S14808696EA013430140600809000
B0231383324187S14808685EA013360140300809000
B0231433324220S14808701EA013300139600909000
B0231483324244S14808745EA013390139300809000
B0231533324238S14808793EA013580140600809000
B0231583324208S14808787EA013730142000809000
B0232033324235S14808763EA013780142901009000
B0232083324254S14808812EA013930144401409000
B0232133324220S14808842EA014140146700709000
B0232183324203S14808813EA014210148201109000
B0232233324238S14808798EA014270149200909000
B0232283324260S14808842EA014360149701209000
B0232333324243S14808888EA014520151100809000
B0232383324209S14808910EA014700152800809000
B0232433324196S14808886EA014870154700909000
B0232483324222S14808868EA014930156300809000
B0232533324251S14808898EA015020157100809000
B0232583324249S14808941EA015190158400809000
B0233033324221S14808958EA015330160000609000
B0233083324196S14808939EA015500161600709000
B0233133324203S14808910EA015540162600909000
B0233183324234S14808897EA015490162400609000
B0233233324266S14808923EA015500162300809000
B0233283324276S14808975EA015610162500809000
B0233333324306S14809000EA015750163401109000
B0233383324327S14808980EA015830164600809000
B0233433324315S14808953EA015880165901109000
B0233483324280S14808979EA016020167001309000
B0233533324293S14809026EA016090167501209000
B0233583324327S14809044EA016170168401009000
B0234033324352S14809016EA016320169800909000
B0234083324351S14808974EA016440171200809000
B0234133324337S14808943EA016590172700609000
B0234183324315S14808918EA016600173800609000
B0234233324280S14808918EA016630174100609000
B0234283324272S14808966EA016600174101209000
B0234333324295S14808995EA016690174400909000
B0234383324325S14809004EA016730174800609000
B0234433324345S14808991EA016790175300709000
B0234483324340S14808950EA016790175600609000
B0234533324326S14808917EA016800175500609000
B0234583324313S14808887EA016780175600509000
B0235033324299S14808855EA016690175200509000
B0235083324277S14808841EA016590174800509000
B0235133324244S14808850EA016500174000609000
B0235183324219S14808885EA016410173000609000
B0235233324201S14808921EA016280171800809000
B0235283324185S14808968EA016280170900609000
B0235333324171S14809014EA016180169700709000
B0235383324193S14809054EA016110168801009000
B0235433324228S14809051EA016020167800709000
B0235483324242S14809018EA015940166900509000
B0235533324230S14808988EA015900166500509000
B0235583324210S14808961EA015810165900809000
B0236033324178S14808958EA015770165300809000
B0236083324149S14808992EA015720164800609000
B0236133324130S14809039EA015670164200609000
B0236183324128S14809092EA015580163300409000
B0236233324125S14809144EA015470162400709000
B0236283324116S14809197EA015400161500609000
B0236333324109S14809249EA015270160100609000
B0236383324105S14809297EA015190159000509000
B0236433324104S14809352EA014980157500609000
B0236483324103S14809410EA014910155800909000
B0236533324108S14809454EA014850154900609000
B0236583324108S14809494EA014840154700509000
B0237033324101S14809536EA014880154800709000
B0237083324095S14809576EA014940155300709000
B0237133324109S14809612EA014970155701009000
B0237183324144S14809628EA015040156200909000
B0237233324177S14809624EA015100156900509000
B0237283324207S14809606EA015190157600409000
B0237333324213S14809578EA015270158500509000
B0237383324185S14809579EA015340159400909000
B0237433324179S14809626EA015370160100809000
B0237483324201S14809665EA015400160601009000
B0237533324233S14809692EA015530161600809000
B0237583324269S14809706EA015630162600609000
B0238033324306S14809700EA015720163600609000
B0238083324314S14809670EA015820164600709000
B0238133324291S14809665EA015920165701209000
B0238183324281S14809707EA016010166800709000
B0238233324312S14809744EA016070167600809000
B0238283324349S14809768EA016190168700809000
B0238333324382S14809769EA016260169700409000
B0238383324413S14809754EA016340170500609000
B0238433324427S14809725EA016380171000609000
B0238483324431S14809696EA016420171500509000
B0238533324417S14809674EA016400171600409000
B0238583324382S14809682EA016370171400509000
B0239033324363S14809731EA016330171000509000
B0239083324371S14809790EA016390170900609000
B0239133324385S14809837EA016430171200609000
B0239183324402S14809882EA016490171800509000
B0239233324429S14809917EA016550172200709000
B0239283324460S14809917EA016610172900709000
B0239333324481S14809898EA016720173900809000
B0239383324496S14809877EA016790174700609000
B0239433324497S14809854EA016820175300409000
B0239483324482S14809831EA016870175600509000
B0239533324458S14809817EA016900176000609000
B0239583324430S14809813EA016920176300509000
B0240033324398S14809828EA016940176600509000
B0240083324373S14809863EA016960176700409000
B0240133324361S14809910EA016990177100509000
B0240183324356S14809961EA017030177400509000
B0240233324366S14810009EA017090178000509000
B0240283324392S14810040EA017170178800709000
B0240333324421S14810052EA017220179600609000
B0240383324451S14810051EA017290180300309000
B0240433324473S14810043EA017330180800509000
B0240483324481S14810020EA017340181200609000
B0240533324459S14810004EA017400181500709000
B0240583324425S14810019EA017420181800609000
B0241033324396S14810052EA017460182300609000
B0241083324375S14810093EA017490182700509000
B0241133324364S14810140EA017530183100709000
B0241183324363S14810188EA017570183300509000
B0241233324388S14810219EA017590183701009000
B0241283324410S14810203EA017640184100809000
B0241333324393S14810183EA017670184300909000
B0241383324361S14810198EA017670184500809000
B0241433324337S14810238EA017680184700709000
B0241483324325S14810285EA017740185000709000
B0241533324334S14810333EA017710185000709000
B0241583324364S14810366EA017770185300509000
B0242033324399S14810373EA017820185800609000
B0242083324427S14810365EA017840186200409000
B0242133324447S14810350EA017860186500509000
B0242183324464S14810330EA017910186700509000
B0242233324465S14810309EA017970187200309000
B0242283324454S14810290EA018020187500309000
B0242333324433S14810280EA018050187700409000
B0242383324404S14810308EA018040188000509000
B0242433324394S14810355EA018020188200609000
B0242483324401S14810406EA018030188200509000
B0242533324415S14810454EA017980188000709000
B0242583324420S14810503EA018010188000609000
B0243033324423S14810554EA017990187900509000
B0243083324428S14810604EA018020188000509000
B0243133324432S14810653EA018030188000509000
B0243183324440S14810702EA018060188200509000
B0243233324450S14810756EA018090188500609000
B0243283324458S14810807EA018080188600609000
B0243333324462S14810858EA018090188600609000
B0243383324469S14810909EA018070188700509000
B0243433324482S14810960EA018040188600409000
B0243483324496S14811016EA017960188100509000
B0243533324516S14811064EA017880187500609000
B0243583324542S14811109EA017740186400709000
B0244033324561S14811168EA017780185900809000
B0244083324566S14811225EA017800185900709000
B0244133324568S14811283EA017860186400609000
B0244183324571S14811342EA017870186600509000
B0244233324578S14811400EA017910187000609000
B0244283324585S14811458EA017990187600509000
B0244333324592S14811514EA018080188400609000
B0244383324614S14811561EA018070188700609000
B0244433324631S14811618EA018040188800609000
B0244483324643S14811675EA017880188200609000
B0244533324656S14811732EA017790187200609000
B0244583324670S14811790EA017630185700609000
B0245033324680S14811845EA017480184300609000
B0245083324685S14811901EA017350182400609000
B0245133324691S14811960EA017240180800509000
B0245183324697S14812019EA017110179400509000
B0245233324700S14812079EA016990177900609000
B0245283324700S14812138EA016840176200509000
B0245333324694S14812199EA016700174600709000
B0245383324699S14812256EA016560173000709000
B0245433324710S14812314EA016390171400509000
B0245483324721S14812376EA016240169700609000
B0245533324730S14812436EA016160168400609000
B0245583324733S14812489EA016020167100609000
B0246033324733S14812543EA015930166000509000
B0246083324730S14812598EA015850165000709000
B0246133324732S14812652EA015860164900709000
B0246183324734S14812701EA015800164500609000
B0246233324738S14812756EA015770163800709000
B0246283324739S14812802EA015750163700609000
B0246333324743S14812855EA015610162700609000
B0246383324745S14812912EA015520161800509000
B0246433324739S14812972EA015370160600609000
B0246483324731S14813029EA015210159000609000
B0246533324717S14813085EA015000157000609000
B0246583324697S14813145EA014790154800809000
B0247033324681S14813203EA014600152600609000
B0247083324662S14813266EA014430150300709000
B0247133324645S14813328EA014240148300509000
B0247183324624S14813385EA014180147000609000
B0247233324607S14813428EA014060146000409000
B0247283324592S14813473EA013920144700409000
B0247333324577S14813521EA013790143400609000
B0247383324565S14813569EA013660142100709000
B0247433324556S14813621EA013530140900509000
B0247483324544S14813672EA013380139600509000
B0247533324532S14813721EA013260138400609000
B0247583324513S14813774EA013090136900509000
B0248033324496S14813824EA012960135400709000
B0248083324483S14813875EA012810133900609000
B0248133324468S14813920EA012680132500409000
B0248183324451S14813965EA012550130900509000
F02482301061517242830
B0248233324432S14814012EA012420129500607000
F024828010613151724262830
B0248283324415S14814055EA012270127900309000
B0248333324398S14814098EA012120126500309000
B0248383324380S14814145EA012000125000509000
B0248433324363S14814196EA011930124100509000
B0248483324345S14814244EA011850123300509000
B0248533324330S14814289EA011760122600609000
B0248583324318S14814338EA011650121500509000
B0249033324312S14814391EA011520120300609000
B0249083324304S14814444EA011430119200609000
B0249133324297S14814498EA011360118200509000
B0249183324292S14814551EA011270117200409000
B0249233324285S14814603EA011190116300609000
B0249283324281S14814656EA011090115400609000
B0249333324279S14814710EA010990114400509000
B0249383324277S14814763EA010880113100609000
B0249433324274S14814815EA010750111800509000
B0249483324267S14814871EA010650110800509000
B0249533324262S14814925EA010580109900609000
B0249583324260S14814984EA010470108800609000
B0250033324257S14815039EA010410108100509000
F0250080106131517242830
B0250083324252S14815093EA010330107300508000
F025013010613151724262830
B0250133324246S14815146EA010220106200609000
B0250183324243S14815201EA010100105000609000
B0250233324237S14815254EA010040104300509000
B0250283324228S14815305EA009970103600509000
B0250333324219S14815355EA009940103200509000
B0250383324213S14815405EA009890102600509000
B0250433324209S14815456EA009810102000509000
B0250483324207S14815509EA009720101100409000
B0250533324201S14815561EA009650100300409000
F02505801020613151724262830
B0250583324196S14815611EA009590099700510000
B0251033324193S14815666EA009500098900510000
B0251083324189S14815719EA009380098000610000
B0251133324185S14815775EA009260096800510000
B0251183324177S14815835EA009070095200610000
B0251233324166S14815892EA008940093500310000
B0251283324152S14815942EA008790091800410000
B0251333324135S14815992EA008650090100410000
B0251383324117S14816042EA008490088400510000
B0251433324108S14816096EA008310086700510000
B0251483324104S14816152EA008130084800510000
B0251533324100S14816206EA007960082900610000
F0251580102061213151724262830
B0251583324101S14816265EA007770081000411000
B0252033324109S14816322EA007640079400311000
B0252083324115S14816378EA007490077900411000
B0252133324117S14816435EA007280076000311000
B0252183324125S14816495EA007050073800411000
B0252233324137S14816562EA006870071800311000
B0252283324150S14816629EA006700069900311000
F02523301021213151724262830
B0252333324162S14816691EA006590068400410000
B0252383324179S14816746EA006470067200510000
B0252433324200S14816811EA006300065800410000
B0252483324219S14816865EA006220064700410000
B0252533324239S14816919EA006100063600410000
B0252583324254S14816974EA005970062300510000
B0253033324264S14817038EA005830060800710000
F0253080102061213151724262830
B0253083324294S14817076EA005670059000511000
B0253133324326S14817086EA005530057400311000
B0253183324355S14817083EA005390055900311000
B0253233324377S14817068EA005310055000511000
B0253283324367S14817061EA005180054500511000
B0253333324340S14817094EA005080054000911000
B0253383324337S14817159EA004970052700611000
B0253433324341S14817238EA004880051500711000
B0253483324364S14817303EA004770050400811000
B0253533324396S14817311EA004670049501211000
B0253583324410S14817295EA004580048700611000
B0254033324435S14817283EA004430047700511000
B0254083324476S14817313EA004250046100611000
B0254133324521S14817369EA004180044300611000
B0254183324542S14817429EA004210044100811000
B0254233324513S14817459EA004220043800811000
B0254283324511S14817430EA004270043900611000
B0254333324543S14817424EA004240044200611000
B0254383324583S14817465EA004160043500611000
B0254433324592S14817540EA004130042900811000
B0254483324555S14817576EA004160042700911000
B0254533324561S14817549EA004110042500811000
B0254583324556S14817529EA004060042500711000
B0255033324529S14817537EA003970042100711000
B0255083324491S14817557EA003790040800611000
B0255133324452S14817601EA003620038900511000
B0255183324410S14817621EA003540037701011000
B0255233324416S14817586EA003490037000711000
B0255283324442S14817571EA003400035600511000
B0255333324460S14817552EA003240034300511000
B0255383324472S14817529EA003110032700411000
B0255433324476S14817500EA002960031100511000
B0255483324480S14817473EA002870029700511000
B0255533324484S14817462EA002870029200511000
B0255583324486S14817459EA002870029100411000
B0256033324487S14817459EA002860029100411000
B0256083324489S14817454EA002860029100511000
B0256133324491S14817451EA002860029200311000
B0256183324491S14817450EA002860029200311000
B0256233324491S14817450EA002860029100311000
B0256283324491S14817450EA002860029100311000
F02563301021213151724262830
B0256333324491S14817450EA002860029100310000
F0256380102061213151724262830
B0256383324491S14817450EA002860029100311000
B0256433324491S14817450EA002860029100311000
B0256483324491S14817450EA002860029100411000
B0256533324491S14817449EA002860029200311000
B0256583324492S14817448EA002860029200211000
B0257033324492S14817445EA002860029200311000
B0257083324494S14817444EA002860029300411000
B0257133324494S14817445EA002860029300311000
B0257183324496S14817443EA002850029300311000
B0257233324498S14817443EA002850029300311000
B0257283324498S14817442EA002860029200211000
B0257333324500S14817442EA002850029200211000
B0257383324502S14817441EA002860029100311000
B0257433324504S14817440EA002850029100311000
B0257483324507S14817440EA002850029100311000
B0257533324508S14817440EA002850029000311000
B0257583324509S14817439EA002850029100311000
B0258033324513S14817438EA002840029200311000
B0258083324516S14817438EA002840029200311000
B0258133324519S14817437EA002840029200311000
B0258183324519S14817437EA002840029200511000
B0258233324519S14817437EA002840029200411000
B0258283324519S14817437EA002840029200411000
B0258333324519S14817437EA002840029200411000
B0258383324519S14817437EA002840029200511000
B0258433324522S14817436EA002840029200311000
B0258483324524S14817434EA002830029200311000
B0258533324527S14817432EA002830029100211000
B0258583324527S14817431EA002830029000311000
B0259033324527S14817431EA002830029000211000
B0259083324528S14817430EA002840029000311000
B0259133324530S14817427EA002830029000211000
B0259183324534S14817427EA002830029000211000
B0259233324538S14817426EA002830028900311000
B0259283324539S14817425EA002830028900411000
B0259333324539S14817425EA002830028900211000
B0259383324539S14817425EA002830028900311000
B0259433324539S14817425EA002830028900411000
B0259483324539S14817425EA002830028900411000
B0259533324539S14817425EA002830028900311000
B0259583324542S14817424EA002830029000311000
B0300033324546S14817423EA002830029000311000
B0300083324550S14817422EA002830029100311000
B0300133324552S14817422EA002820029000211000
B0300183324557S14817421EA002820029000311000
B0300233324560S14817420EA002820029000311000
B0300283324563S14817420EA002820028900211000
B0300333324566S14817419EA002820028800411000
B0300383324570S14817419EA002820028700311000
B0300433324571S14817418EA002810028700311000
B0300483324571S14817418EA002810028700211000
B0300533324571S14817418EA002810028700311000
B0300583324571S14817418EA002810028700311000
B0301033324572S14817418EA002810028800311000
B0301083324574S14817416EA002810028800311000
B0301133324578S14817415EA002810028800311000
B0301183324581S14817413EA002810028900411000
B0301233324585S14817413EA002800028900211000
B0301283324589S14817412EA002800028900211000
B0301333324593S14817411EA002800028900311000
B0301383324596S14817410EA002810028900411000
B0301433324599S14817409EA002800028800311000
B0301483324603S14817408EA002800028800211000
B0301533324606S14817408EA002800028700311000
B0301583324610S14817407EA002800028700311000
B0302033324613S14817407EA002800028600311000
B0302083324617S14817406EA002790028500311000
B0302133324620S14817405EA002790028500211000
B0302183324624S14817404EA002790028500211000
B0302233324628S14817404EA002790028500411000
B0302283324629S14817404EA002790028500311000
B0302333324629S14817404EA002790028500311000
B0302383324629S14817404EA002790028500311000
B0302433324629S14817404EA002790028500411000
B0302483324629S14817404EA002790028500411000
B0302533324629S14817404EA002790028500311000
F03025801020612131524262830
B0302583324629S14817404EA002790028500310000
F0303030102061213151724262830
B0303033324632S14817403EA002790028500311000
B0303083324636S14817402EA002790028500211000
B0303133324640S14817401EA002790028400211000
B0303183324643S14817400EA002790028400311000
B0303233324647S14817400EA002790028300311000
B0303283324650S14817399EA002780028300311000
B0303333324654S14817398EA002780028300411000
B0303383324657S14817397EA002780028300211000
B0303433324661S14817397EA002780028200311000
B0303483324665S14817396EA002780028200311000
B0303533324668S14817395EA002780028300311000
B0303583324671S14817395EA002780028300411000
B0304033324671S14817394EA002780028400511000
B0304083324671S14817394EA002780028400411000
B0304133324671S14817394EA002780028400511000
B0304183324672S14817394EA002780028300411000
B0304233324675S14817394EA002780028300211000
B0304283324678S14817393EA002770028300311000
B0304333324681S14817392EA002770028200411000
B0304383324683S14817392EA002770028200311000
B0304433324683S14817392EA002770028200411000
B0304483324683S14817392EA002770028200411000
B0304533324683S14817392EA002770028200411000
B0304583324683S14817392EA002770028200311000
B0305033324685S14817391EA002770028100311000
B0305083324689S14817390EA002770028300311000
B0305133324692S14817389EA002770028200311000
B0305183324696S14817388EA002770028200311000
B0305233324700S14817387EA002770028300211000
B0305283324703S14817386EA002770028300311000
B0305333324704S14817386EA002770028300411000
B0305383324704S14817386EA002770028300511000
B0305433324704S14817386EA002770028300511000
B0305483324704S14817386EA002770028300511000
B0305533324707S14817385EA002770028200311000
B0305583324711S14817385EA002770028300311000
B0306033324715S14817384EA002760028400311000
B0306083324719S14817384EA002760028400311000
B0306133324722S14817383EA002760028300311000
B0306183324726S14817382EA002760028400311000
B0306233324730S14817381EA002760028400311000
B0306283324733S14817380EA002760028400411000
B0306333324737S14817379EA002760028400311000
B0306383324740S14817379EA002760028500311000
B0306433324741S14817378EA002760028400311000
B0306483324741S14817378EA002760028400411000
B0306533324743S14817378EA002760028300311000
B0306583324747S14817377EA002760028200211000
B0307033324751S14817377EA002760028200411000
B0307083324754S14817376EA002760028200311000
B0307133324758S14817375EA002760028200411000
B0307183324762S14817374EA002760028200311000
B0307233324765S14817373EA002760028200211000
B0307283324768S14817370EA002760028200311000
B0307333324772S14817368EA002760028200311000
F03073801020612131517262830
B0307383324773S14817366EA002750028200410000
F0307430102061213151724262830
B0307433324773S14817366EA002750028200411000
B0307483324773S14817366EA002750028200411000
B0307533324775S14817365EA002750028200311000
B0307583324778S14817365EA002750028100211000
B0308033324782S14817363EA002750028200511000
B0308083324785S14817360EA002750028100311000
B0308133324788S14817357EA002750028300311000
B0308183324789S14817356EA002750028200311000
B0308233324789S14817356EA002750028200411000
B0308283324789S14817356EA002750028200311000
B0308333324789S14817356EA002750028200311000
B0308383324791S14817354EA002750028200511000
B0308433324793S14817351EA002750028200211000
B0308483324795S14817348EA002750028200211000
B0308533324798S14817344EA002750028200211000
B0308583324798S14817343EA002750028200311000
B0309033324800S14817339EA002750028200311000
B0309083324802S14817335EA002750028300311000
B0309133324802S14817330EA002750028300211000
B0309183324802S14817327EA002750028400211000
B0309233324803S14817326EA002750028400311000
B0309283324806S14817326EA002750028300311000
B0309333324806S14817326EA002750028300311000
B0309383324806S14817326EA002750028300311000
B0309433324806S14817326EA002750028300311000
B0309483324806S14817326EA002750028300311000
B0309533324806S14817326EA002750028300311000
B0309583324806S14817326EA002750028300311000
B0310033324806S14817326EA002750028300311000
B0310083324806S14817326EA002750028300311000
B0310133324806S14817326EA002750028300311000
B0310183324806S14817326EA002750028300311000
B0310233324806S14817326EA002750028300311000
L   FlyChart
L   Version 4.52(72) TEST, June 31st 2012
GA19C343AD434F77090A4013D7AFE34866C556AF5C50D66D1D0CBBD5134089D78
